:020000040800F2
:10000000682300209D01000805220008FF1C00084D
:10001000DD200008810800087D280008000000009D
:100020000000000000000000000000009122000815
:100030004909000800000000072200089322000878
:10004000B7010008B7010008B7010008B7010008B0
:10005000B7010008B70100084B090008B701000804
:10006000B7010008B701000851090008B7010008EE
:10007000B7010008B7010008B7010008B701000880
:10008000B7010008B7010008B7010008B701000870
:10009000B7010008B7010008B7010008B701000860
:1000A000B7010008B7010008B7010008B701000850
:1000B000B7010008B7010008B7010008B701000840
:1000C000B7010008B7010008B7010008B701000830
:1000D000B70100086528000871280008B70100086A
:1000E000B7010008B7010008B7010008B701000810
:1000F000B7010008B7010008B7010008B701000800
:10010000B7010008B701000839230008B70100084B
:10011000B7010008B7010008B7010008B7010008DF
:10012000B7010008B7010008B7010008B7010008CF
:10013000B7010008B7010008B7010008B7010008BF
:10014000B7010008B7010008B7010008B7010008AF
:10015000B7010008B7010008B7010008B70100089F
:10016000B7010008B7010008B7010008B70100088F
:10017000B7010008B7010008B7010008000000003F
:10018000B7010008B7010008DFF80CD000F0C6FA8C
:10019000004800473536000868230020064880479D
:1001A00006480047FEE7FEE7FEE7FEE7FEE7FEE75C
:1001B000FEE7FEE7FEE7FEE71D23000889010008D1
:1001C0002DE9F05F0546002092469B46884606468C
:1001D000814640241BE0284641464746224600F01F
:1001E000E2F853465A46C01A914110D311461846B8
:1001F000224600F0C9F82D1A67EB01084F46224647
:100200000120002100F0C0F817EB00094E41201E2C
:10021000A4F10104DFDC484631462A464346BDE8E6
:10022000F09FD2B201E000F8012B491EFBD27047CB
:100230000022F6E710B513460A4604461946FFF7B2
:10024000F0FF204610BD2DE9FE4F81EA030404F0C3
:10025000004421F0004100944FF0000B23F00043D4
:1002600050EA01045ED052EA03045BD0C3F30A549F
:10027000C1F30A552C44A4F2F3340194A0FB0254B8
:10028000C1F3130141F48011C3F3130343F480134A
:1002900001FB024400FB034E840A970A44EA81549E
:1002A00047EA8357A4FB076802958D0A05FB07857B
:1002B0004FEA932C04FB0C542705029D4FEA065885
:1002C00047EA1637B5EB08056EEB070C870E920E62
:1002D00047EA811742EA8312A7FB0201B6EB0B0142
:1002E00064EB00042B0D43EA0C335E1844EB1C5006
:1002F000DA465146E7FB0201C5F313044FEA0B331C
:1003000043EA14534FEA0432019C43EA0603A4F182
:100310000C040294009CCDE900B400F09AF803B0FC
:10032000BDE8F08F00200146F9E700F0004230F010
:1003300000400AD0C10D01F56071C0F3160042EA19
:100340000151C20840071143704700200146704721
:1003500001F0004330B421F0004150EA010206D020
:100360000A0DA2F56072C1F31301002A02DC30BC51
:1003700000207047440F44EAC104C100E01830BCBB
:1003800000EBC25000F01FB8202A04DB203A00FA2C
:1003900002F1002070479140C2F1200320FA03F3DC
:1003A000194390407047202A04DB203A21FA02F0DA
:1003B0000021704721FA02F3D040C2F1200291409F
:1003C0000843194670470029A8BF7047401C4900E0
:1003D00008BF20F00100704710B4B0FA80FC00FAAA
:1003E0000CF050EA010404BF10BC704749B1CCF1D5
:1003F000200421FA04F411FA0CF118BF0121214361
:100400000843A3EB0C01CB1D4FEA00614FEA10201B
:1004100042BF002010BC704700EBC35010440029BD
:10042000A4BF10BC7047401C490008BF20F0010069
:1004300010BC704710B5141E73F1000408DA401C9C
:1004400041F1000192185B411A4301D120F00100F3
:1004500010BD2DE9F04D92469B4611B1B1FA81F2E3
:1004600002E0B0FA80F220329046FFF78DFF04469A
:100470000F4640EA0A0041EA0B0153465A46084338
:1004800013D0114653EA010019D0C8F1400250467A
:10049000FFF789FF05460E46504659464246FFF78C
:1004A00073FF084305D0012004E020463946BDE82B
:1004B000F08D0020054346EAE0762C4337430A9846
:1004C0006305E40AA0EB08000022FD0A44EA475451
:1004D0000A3002D500200146E9E7010510196941FB
:1004E000DDE9084500196941BDE8F04DA2E72DE9B5
:1004F000FE4F804681EA0300C00F0C46009021F0B9
:10050000004123F00045B8EB0200A94105D2404666
:10051000214690461C460B46024623F000401043FD
:1005200047D0270DC7F30A00C3F30A510290401ABF
:10053000019040286BDAC3F3130040F4801B00984D
:10054000924620B10023D2EB030A63EB0B0B019818
:100550005946C0F140025046FFF716FF06460D46C9
:1005600050465946019A00F0EBF810EB0800614143
:10057000002487EA115284EAE7731A4340D0009AB4
:1005800062B3019A012A4FEA075215DC001B61EBA6
:1005900002014FF0004202EA0752CDE90042001C7E
:1005A00041F5801132462B46FFF753FF03B0BDE8FB
:1005B000F08F40462146F9E7001B61EB0201001C69
:1005C00041F5801300185B412018A2F5001747EB96
:1005D000030140EAD570B6196D4111E06D084FEA8C
:1005E000360645EAC0754FEA0752001B61EB02016F
:1005F000001C41F5801149084FEA300000195141B3
:1006000032462B4603B0BDE8F04FFFF713BF00980A
:10061000012240000023D0EB020263EBE07300985C
:1006200021464FEAE074B8EB000061EB0401E9E712
:1006300083F000435BE781F0004158E72DE9F04D7E
:1006400081EA030404F0004B21F0004514464FF00A
:10065000000A23F0004150EA050220D054EA0102CA
:100660001DD0C5F30A570246C5F31303C1F31300A7
:10067000C1F30A5640F4801543F48013A7EB060833
:10068000101BD64608F2FD3873EB050002D308F1C3
:10069000010801E092185B41B8F1000F03DA002075
:1006A0000146BDE8F08D00204FF4801106468446D7
:1006B0000EE0171B73EB050705D3121B63EB050355
:1006C00006434CEA010C49084FEA300092185B419E
:1006D00050EA0107EDD152EA030012D082EA040089
:1006E00083EA0501084305D0101BAB4106D2012265
:1006F000002306E000224FF0004302E06FF0010209
:1007000053101AEB06004CEB085110EB0A0041EBBA
:100710000B01BDE8F04DFFF78DBE0000064C074D04
:1007200006E0E06840F0010394E8070098471034C1
:10073000AC42F6D3FFF72CFD88380008A838000833
:10074000202A06DBCB17203A41FA02F043EAE07395
:1007500006E041FA02F3D040C2F120029140084382
:10076000194670472DE9F04D00231A461B1A8A419D
:1007700003DB00200146BDE8F08DC1F30A52C1F34E
:10078000130141F480154FF0000BD10702D100187E
:100790006D41521E0027044640F2FF11384601EB1E
:1007A000620A3E468046024600204FF48011FFF761
:1007B000FAFDC2197141BB1846EB0100B4EB030C02
:1007C00075EB000C04D3E41A65EB000517460E46E2
:1007D000241908F101006D4180463428E3DDF91940
:1007E00046EB0600091BA84103D24FF0FF32134627
:1007F00001E0002213461BEB070046EB0A51BDE85F
:10080000F04DFFF717BE0EB5C10F80EAE070084447
:10081000CA07002140F233438DE80E000A460B461A
:10082000FFF717FE03B000BD0EB540F23341029151
:100830000021CDE900110A460B46FFF70AFE03B07E
:1008400000BD70B5C1F30A5201F000450024C1F3A8
:10085000130140F2FF3341F480119A4201DA002083
:1008600070BD40F233439A42A2F2334203DC52425B
:10087000FFF799FD00E090402C43F1D0404270BD5D
:10088000FEE7000010B5294C9FED270A2DED028BE5
:10089000208800EE900AF8EE600A20EE200A10EEA2
:1008A000100AFFF742FD41EC100B02F0C1F99FED79
:1008B000201B53EC102B51EC110BFFF7C4FCFFF77E
:1008C00047FD00EE100A9FED1C1AC0EE010A10EE63
:1008D000900AFFF72AFD41EC100B01F0F9FF51ECF3
:1008E000100BFFF735FD08EE100A02F02FFE13483B
:1008F000F0EE480A90ED000A01F086FC80B26080BC
:1009000001F0EEFB0F48DFED0E0A90ED000A01F05A
:100910009DFC80B2A08001F021FC2088401D208039
:10092000BDEC028B10BD000044E66D3B00000020D2
:10093000000000000088B34000803B4468000020B5
:1009400000000000640000207047012000F026B87D
:10095000102000F023B8704790F83510022903D01A
:100960008021416501207047052180F8351000681D
:10097000016821F00101016000207047064901284B
:1009800005D0102802D18888401C8880704748888C
:10099000401C4880704700005C000020044910B5EE
:1009A0000A68024202D00860FFF7E8FF10BD0000AD
:1009B000143C01402DE9F84F00224FF001080325B7
:1009C0004FF00F0E0B6808FA02F42340A3426ED1D9
:1009D0004E68012E05D0022E03D0112E01D0122E0A
:1009E00012D186684FEA420C05FA0CF7BE43CF6875
:1009F00007FA0CF7374387604668A6430C79C4F3BF
:100A00000014944034434460C668570005FA07FC5C
:100A10008C6826EA0C06BC403443C4604C68022C47
:100A200001D0122C13D1D40800EB8404A346D4F8CF
:100A3000209054074FEAD46A0EFA0AF629EA06090A
:100A40000E6906FA0AF646EA0906CBF8206006683F
:100A50000C7926EA0C0604F00304BC40344304601D
:100A60004C68E40065D5364C266846F4804626601E
:100A7000246822F0030604F480440094314C34448A
:100A8000A446D4F808489607370F0EFA07F6B44381
:100A90002D4EB04201D1002624E02C4EB04201D1AF
:100AA00001261FE02A4EB04202D102261AE040E0A1
:100AB000284EB04201D1032614E0274EB04201D1A6
:100AC00004260FE0254EB04201D105260AE0244E4F
:100AD000B04201D1062605E0224EB04201D10726E0
:100AE00000E00826BE402643CCF808681E4E346855
:100AF0004F689C43FF0300D51C4334601A4C241DEF
:100B000026684F689E43BF0300D51E432660164EDD
:100B1000083634684F689C43FF0200D51C4334609C
:100B2000114E0C3634684F689C43BF0200D51C43FD
:100B30003460521C102AFFF445AFBDE8F88F000066
:100B400044380240003001400000024000040240EE
:100B500000080240000C0240001002400014024055
:100B600000180240001C0240003C01400AB18161B3
:100B700070470904FBE700000148806870470000E7
:100B80007000002070B5040025D094F83D000025C9
:100B900020B984F83C50204600F0B8F8242084F8AE
:100BA0003D002068016821F00101016020680168B2
:100BB00041F4004101602068016821F400410160B6
:100BC00000F028FA4D4A6168914201D84C4900E092
:100BD0004C49884201D2012070BD4B492368B0FBCB
:100BE000F1F15E6826F03F060E435E606368934253
:100BF00006D94FF4967359434FF47A73B1FBF3F16E
:100C00002368491C1E6A26F03F0631431962616859
:100C1000914210D84900401EB0FBF1F2521CC2F3C1
:100C20000B02042A01D2042022E0B0FBF1F0401CA8
:100C3000C0F30B001CE0A268F2B301EBC10303EBAD
:100C40000116431EB3FBF6F35B1C43F480431B0504
:100C500049D092B301EBC10202EB0111401EB0FB7F
:100C6000F1F0401CC0F30B0040F4804040F4004021
:100C70002168CA694CF6FF739A431043C861D4E9EE
:100C8000071001432068026822F0C002114301608E
:100C9000D4E9030101432068826848F2FF339A4394
:100CA00011438160D4E9050108432168CA6822F034
:100CB000FF021043C86001E00EE016E02068016802
:100CC00041F0010101602564202084F83D00256386
:100CD00084F83E50002070BD01EB4106431EB3FB7B
:100CE000F6F35B1CB3E70120C2E701EB4101401EB4
:100CF000B0FBF1F0401CC0F30B00B7E7A086010089
:100D000080841E0000093D0040420F00F0B587B00E
:100D1000044614216846FFF78BFA2768204CDFF859
:100D20007CC01F4912220123032504261D481034CC
:100D3000674515D10F6847F002070F60096801F099
:100D40000201059129028DE86E006946FFF732FE27
:100D5000206840F400102060206800F4001019E0C2
:100D6000DFF844C0674516D10F6847F002070F60EF
:100D7000096801F0020105914FF440618DE86E00B1
:100D80006946FFF717FE206840F480002060206865
:100D900000F48000059007B0F0BD00000054004052
:100DA0003038024000040240005800400248816888
:100DB0000278114481607047700000200B4810B524
:100DC000016841F400710160016841F480610160D3
:100DD000016841F480710160032000F06FF8002089
:100DE00000F006F800F024F8002010BD003C02409E
:100DF00070B50D4D04464FF47A712878B1FBF0F0D0
:100E00000A490968B1FBF0F000F002FB48B9102C68
:100E100007D200222146501E00F030F800206C60FE
:100E200070BD012070BD0000700000207C0000201B
:100E30000A4808B5016841F480410160006800F487
:100E4000804000900548001F016841F0805101601A
:100E5000006800F08050009008BD00004438024057
:100E6000002809DB00F01F020121914040098000A9
:100E700000F1E020C0F8001170470000F0B40E4B04
:100E80001B680C46C3F30223C3F10705042D00D9E8
:100E90000425191D072901D2002300E0DB1E0126CD
:100EA00006FA05F1491E214099409E40761E1640E3
:100EB0003143F0BC01F0FBBC0CED00E0064900F052
:100EC000070208684FF6FF03184040EA0220034A71
:100ED00010430860704700000CED00E00000FA05C8
:100EE0002DE9F0470E46050065D0DFF81481D8F8EB
:100EF0000000F7B200F00F00B04207D288F800708F
:100F0000D8F8000000F00F00B04254D128683D4CE2
:100F1000810712D5400703D5206840F4E0502060D7
:100F20002878000703D5206840F4604020602068DE
:100F3000A96820F0F000084320602878C0072DD071
:100F4000304968680839012812D0022813D00328D4
:100F500011D00968890700292DDA216821F00301E1
:100F600001432160FFF708FE814641F2883A0EE016
:100F700009688903EFE709688901ECE7FFF7FCFDE1
:100F8000A0EB0901514502D90320BDE8F087206894
:100F9000696800F00C00B0EB810FEFD1D8F80010B9
:100FA000404601F00F01B14207D90770006800F018
:100FB0000F00B04201D00120E7E72878400705D5AF
:100FC0002068E96820F4E050084320602878000792
:100FD00006D52068296920F4604040EAC1002060FD
:100FE00000F038F82168084AC1F30311515CC84089
:100FF0000649086006480068FFF7FAFE0020C4E7CB
:10100000003C024008380240FE3600087C00002008
:10101000740000200448054900680968044AC1F3C7
:101020008221515CC84070477C0000200838024093
:101030000E3700080448054900680968044AC1F3EE
:101040004231515CC84070477C00002008380240A3
:101050000E370008154810B5006810F00C0214484F
:1010600013D04110042A0FD0082A0ED10F4C241F90
:101070002268236802F03F025B0207D52068C0F3B4
:101080008810A0FB010106E0084610BD2168C1F3ED
:101090008811A1FB00010023FFF792F82168C1F33A
:1010A0000141491C4900B0FBF1F010BD0838024075
:1010B0000024F4002DE9F84F04006ED02078DFF80A
:1010C0003C93C007A9F104054AD009F10400016866
:1010D000C1F38101012908D00068C0F38100022812
:1010E0000AD1D9F80000400206D52868800337D518
:1010F00060680028E1D033E06068B0F5803F10D030
:10110000B0F5A02F286810D020F48030286028681F
:1011100020F4802028606068A8B1FFF72DFD064606
:101120000DE0286840F48030F4E740F48020286027
:10113000F7E700BFFFF720FD801B642873D82868FD
:101140008003F7D50CE0FFF717FD064605E000BF6A
:10115000FFF712FD801B6428F0D828688003F7D4BD
:101160002078DFF89C8280074FF0000A3ED5A34824
:10117000001D016811F00C0F08D00068C0F3810059
:1011800002280BD1D9F80000400207D42868800754
:1011900016D5E068012800D112E02BE1E068B8B173
:1011A0000120C8F80000FFF7E7FC064605E000BF95
:1011B000FFF7E2FC801B0228C0D828688007F7D51B
:1011C0002868216920F0F80040EAC10028600DE09D
:1011D000C8F800A0FFF7D0FC064604E0FFF7CCFCFF
:1011E000801B02281FD828688007F7D420780007C2
:1011F00022D5824E83486169703671B10121016048
:10120000FFF7BAFC074604E0FFF7B6FCC01B022854
:1012100009D830688007F7D50EE0C0F800A0FFF7C6
:10122000ABFC074605E082E0FFF7A6FCC01B0228E6
:101230007DD830688007F7D42078400768D5DFF87C
:10124000BCB100270BF13C0BDBF80000C0000BD455
:10125000DBF8001041F08051CBF80010DBF8000003
:10126000012700F080500090674E3068C00510D410
:10127000306840F480703060FFF77EFC009005E03D
:10128000FFF77AFC0099401A022850D83068C00550
:10129000F6D55A4EA0686C3601280FD00528306864
:1012A00010D020F001003060306820F00400306081
:1012B000A068B8B1FFF760FC00900FE0306840F024
:1012C0000100F4E740F004003060F7E7FFF754FC5A
:1012D0000099411A41F28830814266D8306880070F
:1012E000F4D50EE0FFF748FC009007E0FFF744FC60
:1012F0000099411A41F28830814256D830688007FF
:10130000F4D42FB1DBF8001021F08051CBF800109D
:10131000A069C8B33949091D0968C1F381010229CF
:101320004AD00228504607D0C8F8600000E03CE0F0
:10133000FFF722FC04463BE04746C8F86000FFF791
:101340001BFC064605E000BFFFF716FC801B0228C9
:101350002BD828688001F7D4D4E907010843A16A93
:101360002A4A490802EB0141626A41EA82110843B4
:1013700094F82C1040EA0161C9F800100120386689
:10138000FFF7FAFB044606E036E000BFFFF7F4FB88
:10139000001B022809D828688001F7D52CE000BF7F
:1013A000FFF7EAFB001B022802D90320BDE8F88FF3
:1013B00028688001F4D41FE00128F7D0D9F8000094
:1013C000E26900F48001914214D1226A00F03F01E9
:1013D00091420FD147F6C071626A0140914209D132
:1013E000A26A00F44031914204D1E16A00F07060D9
:1013F000884201D00120D9E70020D7E70438024015
:1014000000004742800E4742007000400000FFFF8E
:1014100010B5401EB0F1807F01D3012010BD4FF008
:10142000E02460610F21601701F041FA0020A06103
:1014300007202061002010BD7047704710B590F85C
:101440003C20012A22D0012280F83C20CA688C6806
:1014500022F4407222434C6822F4806222430C68DA
:1014600022F4006222430C6922F4805222434C6928
:1014700022F400522243C969002322F480420A4325
:1014800001684A6480F83C30002010BD022010BD85
:1014900070B590F83C20012A32D0012480F83C40FD
:1014A000022280F83D2003685A689D6822F0700689
:1014B0000A6832435A60134B02689A4214D0B2F160
:1014C000804F11D0104B9A420ED0104B9A420BD045
:1014D0000F4B9A4208D00F4B9A4205D00E4B9A42BE
:1014E00002D00E4B9A4204D1496825F0800319437B
:1014F000916080F83D40002180F83C10084670BDA6
:10150000022070BD000001400004004000080040BF
:10151000000C004000040140004001400018004061
:1015200010B5040003D094F83D0010B107E001208D
:1015300010BD002084F83C00204600F00DF8022089
:1015400084F83D00211D206800F0FCFE012084F895
:101550003D00002010BD000008B50168134881421D
:1015600001D1134819E01248001FB1F1804F14D087
:10157000104A914219D1016841F0080101600068E8
:10158000002200F00800009011463220FFF776FCA0
:10159000BDE808403220FFF763BC016841F001015B
:1015A0000160006800F00100009008BD00000140EB
:1015B00044380240000C00400168CA6842F0010251
:1015C000CA600068816801F00701062903D001683C
:1015D00041F0010101600020704770B5044690F8A9
:1015E0003C00012817D0012584F83C50022084F8E3
:1015F0003D002068826822F0770222F47F428260F8
:101600000868502830D00DDC20284DD005DC98B378
:1016100010283BD148E0022070BD302844D040283B
:1016200034D139E0602828D0702806D0B0F5805F2A
:101630002CD0B0F5005F29D10AE0CB68D1E90121B7
:10164000206800F0F0FE2068816841F0770109E031
:10165000CB68D1E90121206800F0E5FE20688168AF
:1016600041F48041816011E0CA684968206800F057
:10167000AFFF5021206807E016E0CA68496820687B
:1016800000F0B7FF6021206800F0D7FE84F83D50DD
:10169000002084F83C0070BDCA684968206800F0EA
:1016A00097FF40212068EFE7226801461046EBE7EC
:1016B000704770B50446006801694FF00005C943E2
:1016C000890715D4C168C943890711D4E91E01618E
:1016D00001202077206880698007204602D0FFF72C
:1016E000E7FF04E000F0ECF8204600F06EF9257703
:1016F00020680169C943490717D4C168C94349072C
:1017000013D46FF004010161022020772068806902
:1017100010F4407F204602D0FFF7CAFF04E000F03B
:10172000CFF8204600F051F9257720680169C943B8
:10173000090716D4C168C943090712D46FF008011C
:101740000161042020772068C0698007204602D00C
:10175000FFF7AEFF04E000F0B3F8204600F035F9E3
:10176000257720680169C943C90617D4C168C943F0
:10177000C90613D46FF0100101610820207720689A
:10178000C06910F4407F204602D0FFF791FF04E0CB
:1017900000F096F8204600F018F9257720680169D6
:1017A000C943C90708D1C168C943C90704D1891E03
:1017B0000161204600F02CF920680169C94309063F
:1017C00009D4C168C943090605D46FF080010161DD
:1017D0002046FFF731FE20680169C943490609D454
:1017E000C168C943490605D46FF040010161204634
:1017F00000F018F920680169C94389060BD4C16853
:10180000C943890607D46FF0200101612046BDE875
:101810007040FFF712BE70BD70B586B0044614214B
:101820006846FEF705FD214A21680024204802256C
:10183000012691420FD1016841F01001016000685A
:10184000694600F0100005904FF4D4400090CDE9B7
:101850000154184823E0B1F1804F24D1016841F0D0
:1018600001010160016801F001010591016841F089
:10187000020101600068694600F0020005904FF423
:1018800000400090CDE90154CDE903460A48FFF736
:1018900091F808200090CDE9015408486946CDE947
:1018A0000346FFF787F806B070BD00000000014056
:1018B00030380240001002400000024000040240A4
:1018C000704770B5044690F83C000D4601280DD0D5
:1018D000012684F83C60022084F83D0042B1042ACD
:1018E00018D0082A2AD00C2A4DD139E0022070BD28
:1018F000206800F0ABFD2068816941F0080181613A
:101900002068816921F004018161206881692A6968
:10191000114311E0206800F0C9FD2068816941F49D
:10192000006181612068816921F4806181612068A2
:1019300081692A6941EA0221816124E0206800F07E
:10194000EBFD2068C16941F00801C1612068C169EF
:1019500021F00401C1612068C1692A69114311E0C5
:10196000206800F00DFE2068C16941F40061C1618A
:101970002068C16921F48061C1612068C1692A6958
:1019800041EA0221C16184F83D60002084F83C00F6
:1019900070BD10B5040003D094F83D0010B107E00D
:1019A000012010BD002084F83C00204600F00CF817
:1019B000022084F83D00211D206800F0C3FC0120B6
:1019C00084F83D00002010BD7047704710B50446F4
:1019D0000068012200F01AFD0B492068884202D0FD
:1019E0000A49884203D1416C41F4004141642068B6
:1019F000816801F00701062903D0016841F0010167
:101A00000160002010BD0000000001400004014002
:101A1000034900680968884201D1FEF733BF704767
:101A2000A80200207047704770B50268044610682D
:101A3000D168536910F00F0F52D003F0010501F483
:101A400090762E435FD0C20705D0CA0503D5E26B5E
:101A500042F00102E263420705D5DA0703D0E26BE8
:101A600042F00202E263820705D5DA0703D0E26B97
:101A700042F00402E263020707D501F020022A4384
:101A800003D0E26B42F00802E263E26B002A33D03B
:101A9000800604D5880602D5204600F0D2FD2068D5
:101AA0004069E16BC0F38010090700D428B32046D9
:101AB00000F0B9FD2068416949061AD5416921F055
:101AC00040014161606BA0B11B490165606BFEF78D
:101AD00043FF002810D0606B016DBDE870400847DF
:101AE000830610D58B060ED52046BDE8704000F069
:101AF000A8BD2046FFF797FF70BD2046FFF793FF74
:101B00000020E06370BD030606D50B0604D5204611
:101B1000BDE8704000F074BE4006F3D54806F1D52C
:101B2000D168204621F04001D160202184F839108D
:101B300000F0E4F870BD00001726000870B504003E
:101B400004D094F83900002510B106E0012070BDE2
:101B500084F83850204600F023F8242084F8390017
:101B60002068C16821F40051C160204600F0B4FD36
:101B70002068016921F4904101612068416921F0E8
:101B80002A0141612068C16841F40051C160E563E8
:101B9000202084F8390084F83A00002070BD00004D
:101BA00070B586B0044614216846FEF741FB2A4E04
:101BB000226800212948022303240725B24222D1AA
:101BC000264A1432166846F010061660126802F0B3
:101BD00010020592026842F001020260006802AA47
:101BE00000F00100059082E832006002CDE90003B8
:101BF00069461B48FEF7DEFE002211462520FFF74E
:101C00003DF9252024E0174EB24223D1134A103269
:101C1000166846F400361660126802F40032059227
:101C2000026842F008020260006802AA00F00800A0
:101C3000059082E832006020CDE9000369460A4839
:101C4000FEF7B8FE002211462620FFF717F92620DE
:101C5000FFF706F906B070BD0010014030380240B1
:101C60000000024000440040000C024090F83A306E
:101C7000202B22D1F9B1F2B190F83830012B1CD0D1
:101C800081628285C2850021C163222280F83A20C8
:101C900080F838100168CA6842F48072CA6001682E
:101CA0004A6942F001024A610068C16841F02001BE
:101CB000C16000207047012070470220704700007B
:101CC00010B500680949884203D10948007801F03D
:101CD00077FC07490122491E0648FFF7C7FFBDE808
:101CE0001040012202490448FFF7C0BF00440040F1
:101CF0005D000020E8020020280300207047FEE776
:101D000030B587B014216846FEF792FA2E480024B9
:101D1000016841F010010160016801F010010591B6
:101D2000016841F080010160016801F080010591C6
:101D3000016841F004010160016801F004010591AE
:101D4000016841F002010160016801F002010591A2
:101D5000016841F001010160016801F00101059194
:101D6000016841F0080101600068184D00F00800AA
:101D700005900022FF212846FEF7F8FEFF20009084
:101D80000120CDE90104694628460394FEF712FEBE
:101D9000112000900E48CDE9010469460D48FEF778
:101DA00009FE002211460620FFF768F80620FFF71B
:101DB00057F8002211460A20FFF760F80A20FFF7C3
:101DC0004FF807B030BD000030380240001002402C
:101DD00000001110000802400D4810B50B490160C9
:101DE0000C49416000214FF480428160C0E9031238
:101DF00041618161C1610162FEF7C4FE002803D028
:101E0000BDE81040FEF7A7BD10BD00000054004023
:101E100080010020A08601000D4810B50B4901602B
:101E20000C49416000214FF480428160C0E90312F7
:101E300041618161C1610162FEF7A4FE002803D007
:101E4000BDE81040FEF787BD10BD000000580040FF
:101E5000D4010020A086010010B596B000240F9494
:101E600010941194129413941C2168461494FEF754
:101E7000DFF9202107A8FEF7DBF935483349016077
:101E800040F24731C0E901146321C0E90314802105
:101E9000C0E90541FFF744FB08B1FEF75CFD4FF4D4
:101EA00080500F900FA92A48FFF797FB08B1FEF763
:101EB00052FD2748FFF76DFD08B1FEF74CFD139466
:101EC00013A923481494FFF7E3FA08B1FEF743FD82
:101ED0006020CDE900040294039404940594002248
:101EE00069461B480694FFF7ECFC08B1FEF733FD8A
:101EF000042269461648FFF7E4FC08B1FEF72BFD03
:101F0000082269461248FFF7DCFC08B1FEF723FD02
:101F10000C2269460E48FFF7D4FC08B1FEF71BFD02
:101F20000794089409944FF400500A94CDE90B40AB
:101F300007A907480E94FFF781FA08B1FEF70BFDD9
:101F40000348FFF769FC16B010BD00000000014017
:101F50002802002010B58EB000240794089409943C
:101F60000A940B941C2168460C94FEF761F92348EF
:101F70004FF08041016040F24731C0E9011440F266
:101F8000CF71C0E9031480218161FFF7C9FA08B15C
:101F9000FEF7E1FC4FF48050079007A91748FFF7C0
:101FA0001CFB08B1FEF7D7FC1448FFF7F2FC08B1A0
:101FB000FEF7D1FC0B940BA910480C94FFF768FABC
:101FC00008B1FEF7C8FC6020CDE9000402940022AD
:101FD00069460A480494FFF774FC08B1FEF7BBFC9D
:101FE000042269460548FFF76CFC08B1FEF7B3FC14
:101FF0000248FFF711FC0EB010BD0000680200207F
:1020000010B586B0002418480094019402940394FB
:10201000049414490594016040F24731C0E9011469
:102020004FF4FA61C0E9031480218161FFF778FA67
:1020300008B1FEF790FC4FF48050009069460A48C2
:10204000FFF7CBFA08B1FEF786FC049404A9064812
:102050000594FFF71DFA002801D0FEF77CFC06B0BE
:1020600010BD0000000C0040A80200200C4810B574
:102070000A4901604FF4E1314160002181600C2286
:10208000C160C0E904128161C161FFF757FD0028FA
:1020900003D0BDE81040FEF75EBC10BD001001404B
:1020A000E80200200C4810B50A4901604FF41651AF
:1020B0004160002181600C22C160C0E9041281618D
:1020C000C161FFF73BFD002803D0BDE81040FEF7DB
:1020D00042BC10BD0044004028030020FEE7000081
:1020E00070B51C4D040010D4002201212846FEF7D3
:1020F0003DFD002210212846FEF738FD0122022175
:102100002846FEF733FD012210E044420122114629
:102110002846FEF72BFD012210212846FEF726FD5A
:10212000002202212846FEF721FD00222021284618
:10213000FEF71CFD642C01DB642404E06FF06300F7
:10214000844200DC0446044801684C630068C463B0
:1021500070BD0000001002402802002070B51C4D28
:10216000040010D4002204212846FEF7FFFC0022C0
:1021700040212846FEF7FAFC012208212846FEF7F6
:10218000F5FC012210E04442012204212846FEF71A
:10219000EDFC012240212846FEF7E8FC0022082140
:1021A0002846FEF7E3FC002280212846FEF7DEFCED
:1021B000642C01DB642404E06FF06300844200DCE3
:1021C0000446044801688C630068046470BD000024
:1021D000001002402802002010B500210848FFF737
:1021E000F5FB04210648FFF7F1FB08210448FFF73F
:1021F000EDFBBDE810400C210148FFF7E7BB0000F4
:1022000028020020704770470F4830EE600AD0ED7A
:102210000A0A30EE801A80ED0A1AD0ED020AD0EDDB
:10222000031A60EE800A41EE810A90ED0B1AD0EDA0
:10223000041A80ED0B0A30EE411A41EE810ABDEE20
:10224000E00A10EE100A7047000000200F4830EE40
:10225000600AD0ED0E0A30EE801A80ED0E1AD0ED35
:10226000050AD0ED061A60EE800A41EE810A90ED73
:102270000F1AD0ED071A80ED0F0A30EE411A41EE29
:10228000810ABDEEE00A10EE100A7047000000203F
:102290007047FEF78BBD000030B593B03021684623
:1022A000FDF7C6FF14210CA8FDF7C2FF1948002551
:1022B000016841F080510160006800F08050119089
:1022C0001548016841F4804101600068022400F46F
:1022D0008040119001200090000401908001CDE920
:1022E000064004200890A820CDE9090407200B909F
:1022F0006846FEF7DFFE0CA90F2081E831004FF49D
:10230000A0500F90E002109005210CA8FEF7E8FD08
:1023100013B030BD403802400070004005480168ED
:1023200041F47001016003494FF00060803908609A
:102330007047000088ED00E00148FFF7BAB90000DF
:10234000A8020020F0B50268254C264D264E274FE6
:10235000274B4FF0804CA04209D0604507D0A842DF
:1023600005D0B04203D0B84201D0984204D122F047
:10237000700E4A6842EA0E02A0421BD0604519D096
:10238000A84217D0B04215D0B84213D0984211D00D
:10239000184DA8420ED0184DA8420BD0174DA84298
:1023A00008D0174DA84205D0164DA84202D0164DB0
:1023B000A84203D122F44075CA682A434D6922F02D
:1023C00080022A4302608A68C2620A688262A0426E
:1023D00001D0984201D10969016301214161F0BD39
:1023E000000001400004004000080040000C0040D4
:1023F0000004014000400140004401400048014009
:1024000000180040001C00400020004010B501F002
:102410001F030121046A99408C430462016A9A40B7
:102420001143016210BD10B5846842EA032224F40E
:102430007F440A432243826010BD826822F070020A
:102440000A4342F00701816070470000F0B5026A5C
:1024500022F001020262036A42688469124E24F08B
:1024600073050C682C4323F002058B682B430D4D3C
:10247000A84201D0B04205D123F00807CB683B4306
:1024800023F00403A84201D0B04205D14D6922F4E3
:10249000407215438A692A434260846149684163F6
:1024A0000362F0BD0000014000040140F0B5026A83
:1024B00022F010020262026A436884690D6824F403
:1024C000E64444EA05248D6822F0200242EA05121F
:1024D0000F4D104EA84201D0B04206D1CF6822F075
:1024E000800242EA071222F04002A84201D0B04224
:1024F00007D14D6923F4406343EA85038D6943EABC
:10250000850343608461496881630262F0BD000015
:102510000000014000040140F0B5026A22F480721C
:102520000262026A4368C46922F4007224F07305EF
:102530000C68124E2C438D6842EA05220E4DA842CB
:1025400001D0B04206D1CF6822F4006242EA0722ED
:1025500022F48062A84201D0B04207D14D6923F431
:10256000405343EA05138D6943EA05134360C46190
:102570004968C1630262F0BD0000014000040140EF
:1025800030B5026A22F480520262046A4268C3696A
:102590000D6823F4E64343EA05238D6824F40054D0
:1025A00044EA0534084DA84202D0084DA84204D19F
:1025B0004D6922F4804242EA85124260C361496853
:1025C0000164046230BD00000000014000040140CD
:1025D00010B5036A046A24F001040462846924F0DB
:1025E000F00444EA021423F00A020A4384610262FE
:1025F00010BD10B5036A23F0100303628369046AF7
:1026000023F4704343EA023224F0A00343EA0111A9
:102610008261016210BD10B5806B0021C185C1844B
:10262000FFF701FA10BD0168CA6822F49072CA600F
:1026300001684A6922F001024A61202180F83A10BB
:10264000704710B590F83A10222901D0022010BD31
:102650008168B1F5805F11D00169002901681FD040
:10266000496801F07F03816A4A1C82620B70C18D48
:10267000491E0904090CC18518D02BE00269816A42
:10268000002A0268526805D0D2B20A80816A491CC9
:102690008162ECE7C2F308020A80816A891CF7E7CD
:1026A0004A68816A4B1C83620A70E0E70168CA6865
:1026B00022F02002CA600168CA6822F48072CA60EF
:1026C00001684A6922F001024A61202180F83A102B
:1026D000FFF7F6FA002010BD2DE9F041044600682E
:1026E0000169E26821F44051114301612169A06848
:1026F000E26908436169114308432168CA6849F2E5
:102700000C639A430243CA6020684169A26921F4BC
:10271000407111434161E069192764253226B0F503
:10272000004F354A354920684FF0000806D08842EE
:1027300001D0904236D1FEF77DFC35E0884201D0D1
:10274000904202D1FEF776FC01E0FEF763FC61687F
:102750004A18A0FB070148EB0803FDF731FD0146CD
:10276000B0FBF5F00201B1FBF5F06FF01803584330
:1027700001EB800006EBC000B0FBF5F000F0F800C4
:1027800002EB4002B1FBF5F0584301EB800006EB91
:10279000C000B0FBF5F000F007002168104488602D
:1027A000BDE8F081FEF736FC61688B0F8A00A0FB64
:1027B0000701FDF705FD0146B0FBF5F06FF01802CB
:1027C000504301EB800006EB0010B0FBF5F000F089
:1027D000F002B1FBF5F002EB0012B1FBF5F06FF087
:1027E0001803584301EB800006EB0010B0FBF5F036
:1027F00000F00F00D1E7000000140140001001407C
:1028000090F83910212901D0022070478168B1F574
:10281000805F016A0BD04A1C02620268097851602D
:10282000C18C491E0904090CC1840ED017E0098827
:102830000268C1F30801516001690029016A02D0F0
:10284000491C0162ECE7891CFBE70168CA6822F0B9
:102850008002CA600068C16841F04001C160002088
:10286000704700000148FFF7DFB80000E8020020D1
:102870000148FFF7D9B8000028030020FEE703B4A1
:1028800001984100009850EAC12018BF04204A0D69
:1028900018BF40F0010040F2FF72B2EB515F08BF79
:1028A00040F00200012808BF052002B07047090768
:1028B000090E002804DB00F1E02080F800147047C6
:1028C00000F00F0000F1E02080F8141D70470000B8
:1028D00070B5C1482DED020B2DED0E8B82B0119D10
:1028E00025F000449FEDBEDB9FEDBFEB84423EDB55
:1028F000A4F140511098A1F17F6108430FD0BC486A
:10290000844202DC28D1109830B39DED100B02B048
:10291000BDEC0E8B02B0BDE8704000F0D5BD9DED62
:10292000100B53EC1D2B51EC100BFDF78CFC9DEDA7
:10293000100B41EC180B53EC1E2B51EC100BFDF758
:1029400082FC53EC182BFDF7D2FD41EC100B02B0CA
:10295000BDEC0E8B02B070BD012000F0F1FD02B0A5
:10296000BDEC0E8B02B0BDE8704000F0B9BDA148CF
:102970009FEDA18B844256DA9DED100BB4F1795F87
:102980000ADA51EC100BFFF77AFF042808BF00F0B9
:10299000B7FD9DED100BDAE753EC102B51EC100B4B
:1029A000FDF751FC41EC190B95480621B0EE490AA0
:1029B000F0EE690A784400F073FC53EC192B51ECEB
:1029C000100BFDF740FC41EC1A0B8E48B0EE490AA3
:1029D000F0EE690A0421784400F062FC53EC192BF4
:1029E00051EC100BFDF72FFC53EC182BFDF77FFD7E
:1029F00041EC100B51EC1A0B53EC102BFDF71EFEA3
:102A0000CDE900019DED000B53EC102B9DED100B5B
:102A100051EC100BFDF717FC9DED101B53EC112B27
:102A2000FDF765FDD2E09DED100B51EC100B00F0B1
:102A3000F5FD53EC182BFDF7FEFD9FED730BCDE973
:102A4000000153EC102B9DED000B51EC100BFDF72A
:102A5000FAFB41EC190B6E480621B0EE490AF0EE84
:102A6000690A784400F01CFC53EC192B51EC100B54
:102A7000FDF7E9FB41EC1B0B6648B0EE490AF0EEAE
:102A8000690A0421784400F00BFC53EC192B51EC3B
:102A9000100BFDF7D8FB53EC182BFDF728FD41EC8C
:102AA0001C0B51EC190B00F0F3FD41EC180B5A48CC
:102AB0009FED5BABA04222DC53EC1C2B51EC1B0BBB
:102AC000FDF7BCFDCDE900019DED000B51EC180BAD
:102AD00053EC102BFDF7B7FB53EC182BFDF707FD5C
:102AE00053EC1A2BFDF7AFFB53EC1D2BFDF7A0FDAC
:102AF00053EC1E2BFDF79FFD41EC100B5FE08DEDBD
:102B0000008B002000909DED000B51EC180B53EC56
:102B1000102BFDF7ECFC9DED000B41EC1E0B53EC74
:102B2000102B51EC100BFDF78EFB53EC192BFDF71E
:102B300082FD53EC1E2BFDF781FD41EC190B53EC8C
:102B40001C2B51EC1B0BFDF779FD41EC1B0B53ECDF
:102B50001A2B51EC190BFDF776FB53EC1D2BFDF7EF
:102B60006AFD41EC190B53EC1A2B51EC180BFDF7D5
:102B70006AFB53EC1B2BFDF766FB53EC192BFDF79F
:102B800057FD9DED000B41EC180B53EC1A2B51EC4B
:102B9000100BFDF758FB9FED249B53EC192BFDF711
:102BA0004AFD41EC100B51EC180B53EC102BFDF7C8
:102BB0003FFD53EC192BFDF73EFD41EC100B002DB2
:102BC0003FF7C5AE51EC100B81F0004141EC100B0A
:102BD000BDE60000000000000000F03F0000000023
:102BE000075C143326A6913C182D4454FB21F93F71
:102BF0000000F07F0000E03F000000000000F03F18
:102C0000600D00006E0D0000000000000000E03FBD
:102C1000B20C0000C00C00003333EF3F0000000096
:102C20000000000000000040182D4454FB21E93F43
:102C300010B52F499FED2C1B2DED020B84B005988C
:102C400020F000408842DCBF00209DED040B32DD07
:102C50002849884209D1049840B94FF0010000F09A
:102C60006FFC00F03DFC06B010BD05DB9DED040BD4
:102C700000F02AFC06B010BD68469DED040B00F084
:102C80003BF810F0030011D0012818D09DED021B75
:102C90009DED000B02281AD000F04AFA51EC100BFF
:102CA00081F0004106B041EC100B10BD9DED021B00
:102CB0009DED000B012000F06FFB06B010BD9DEDF7
:102CC000021B9DED000B00F033FA06B010BD012091
:102CD00000F062FB51EC100B81F0004106B041ECBA
:102CE000100B10BD000000000000000000000000FC
:102CF000FB21E93F0000F07F2DE9F14F04462DED67
:102D0000020B2DED088B8AB09FEDE70B80ED020BD7
:102D1000139EE74826F0004585420ADC9DED120B24
:102D2000002084ED000B0AB0BDEC088B03B0BDE8B9
:102D3000F08FE0489FEDE0AB9FEDE1BBA84247DD9F
:102D4000E14F9FEDE39B9FEDE48B9DED120B53EC68
:102D50001A2B51EC100B002E1CDDFDF769FC41EC29
:102D6000100BBD4208D053EC1B2B51EC100BFDF7A0
:102D70005FFCC4E900010BE053EC192B51EC100B84
:102D8000FDF756FC53EC182BFDF752FCC4E900018B
:102D90000120C8E7FDF7ABFB41EC100BBD4208D0AA
:102DA00053EC1B2B51EC100BFDF7A1FBC4E9000108
:102DB0000BE053EC192B51EC100BFDF798FB53EC87
:102DC000182BFDF794FBC4E900014FF0FF30AAE790
:102DD000C348A84279DB9DED120B51EC100B00F0BB
:102DE0001DFC41EC180B9FEDC00B53EC102BFDF7B5
:102DF0002AFA9FEDBF1B53EC112BFDF778FBFDF773
:102E000020FD0746FDF7FFFC41EC190B53EC1A2B94
:102E1000FDF719FA53EC182BFDF70DFC41EC180BDC
:102E200053EC1B2B51EC190BFDF70DFADFF8C8A280
:102E300041EC100B4FEA15580125FA4453EC102BC6
:102E400051EC180BFDF7F4FB032DC4E900013DD054
:102E5000C1F30A5005EB4511A8EB0000113981427E
:102E600034DA0AEB051BB0EE48AA9BED000BF0EE3E
:102E700068AA53EC102B51EC190BFDF7E4F941EC67
:102E80001B0B51EC1A0B53EC1B2BFDF7D1FB41EC48
:102E9000180B51EC1A0B53EC182BFDF7C9FB53EC34
:102EA0001B2BFDF7C5FB9BED020B41EC1A0B53EC02
:102EB000102B51EC190BFDF7C6F953EC1A2BFDF74B
:102EC000B7FB41EC100B6D1CB8E70EE0002EA8BF5D
:102ED0003846BFF628AF94ED000B51EC100B81F093
:102EE0000041C4E9000178421DE7C6F3130040F435
:102EF000801EC6F30A50A0F2F530471100F01F05FE
:102F0000C5F12000DDF848B0089000200690079039
:102F10000520EC467949002D07EB0002794408BFF3
:102F200051F8221009D051F8223001EB8201AB4058
:102F30004A68089922FA01F11943A1FB0E26A1FB68
:102F40000B131A449A4234BF0123002303EB0608F3
:102F50000CEB8003D3E901A60E448E4234BF01215D
:102F6000002192448A4411B1924502D903E092456E
:102F700001D2012100E00021C3E901A641444CF83F
:102F80002010011EA0F10100C4DC029800F10050E5
:102F9000850F0298DDE903678000DDF81480FDF7F6
:102FA00032FC41EC1A0B3046FDF73EFC9FED541B02
:102FB00053EC112BFDF747F941EC1B0B3846FDF79D
:102FC00033FC9FED511B53EC112BFDF73CF941EC09
:102FD000180B4046FDF728FC9FED4D1B53EC112BC1
:102FE000FDF731F941EC190B51EC180B53EC192B8F
:102FF000FDF77DFA53EC1B2BFDF779FA53EC1A2BF6
:10300000FDF775FACDE90801002008909DED080B49
:1030100053EC1A2B51EC100BFDF70AFB53EC1B2B56
:10302000FDF706FB53EC182BFDF702FB53EC192BB5
:10303000FDF701FB9FED381B53EC112BFDF703F956
:103040009FED370B41EC180B53EC102B9DED080B4B
:1030500051EC100BFDF7F7F853EC182BFDF747FA7E
:103060009FED310B41EC180B53EC102B9DED080B31
:1030700051EC100BFDF7E7F853EC182BFDF737FA7E
:1030800041EC100B139810F0004F06D06D4251EC3C
:10309000100B81F0004141EC100B284684ED000B31
:1030A00041E60000000000000000000000000000F9
:1030B000FB21E93F7CD9024000004054FB21F93F4D
:1030C0003163621A61B4D03DFB21F93F000000007A
:1030D0000000601A61B4D03D7370032E8A19A33BBF
:1030E000FB2139410000000083C8C96D305FE43F17
:1030F000000000000000E03F5A090000A80800009E
:10310000000000000000103E000000000000103C25
:10311000000000000000103A182D4454FB21F93D36
:103120003326A611460B113C00000054FB21F93D4B
:1031300010B52DED040B2DED088B82B0B0EE419A49
:10314000F0EE619A0B9820F000449FED4BABB4F188
:10315000795F11DA9DED0A0B51EC100BFDF771FB55
:10316000002801BFB0EE4A0AF0EE6A0A02B0BDECD8
:10317000088B04BF04B010BD9DED0A0B53EC102B5F
:1031800051EC100BFDF75FF841EC180B3C480621A1
:10319000B0EE480AF0EE680A784400F081F853EC8B
:1031A000182B51EC100BFDF74EF89DED0A0B41EC7E
:1031B0001B0B53EC192B51EC100BFDF744F841ECB1
:1031C000190B53EC1B2B51EC180BFDF73CF853EC8F
:1031D000192BFDF72DFA9FED2C0B41EC190B53EC3D
:1031E000102B51EC180BFDF72EF841EC100B284872
:1031F000844210DA53EC192B51EC100BFDF718FA3E
:1032000053EC1A2BFDF717FA41EC100B02B0BDEC92
:10321000088B04B010BD1F48A042BCBF9FED1E1B11
:103220008DED001B06DBA4F500100190002000903E
:103230009DED001B51EC100B53EC112BFDF7F8F931
:103240009DED000B41EC180B53EC102B51EC1A0BBD
:10325000FDF7EEF941EC1A0B53EC192B51EC180B5E
:10326000FDF7E6F953EC1A2BFDF7E5F941EC100BED
:10327000CCE7000000000000000000000000F03F6C
:10328000CC05000000000000000000000000E03F4E
:103290003333D33F0000E93F000000000000D23F7D
:1032A00070B504462DED028B4D1E00EBC500B0EE4F
:1032B000408AF0EE608A90ED000B35F0060017D0E2
:1032C00053EC182B51EC100BFCF7BDFF41EC100B2D
:1032D0006D1E04EBC50090ED001B51EC100B53EC80
:1032E000112BFDF704F941EC100B35F00600E7D186
:1032F000022D36D0042D1CD0062D1CBFBDEC028B38
:1033000070BD53EC182B51EC100BFCF79CFF94EDA7
:103310000A1B53EC112BFDF7EAF853EC182BFCF7C2
:1033200092FF94ED081B53EC112BFDF7E0F841ECF4
:10333000100B53EC182B51EC100BFCF784FF94EDA1
:10334000061B53EC112BFDF7D2F853EC182BFCF7AE
:103350007AFF94ED040B53EC102BFDF7C8F841EC09
:10336000100B53EC182B51EC100BFCF76CFF94ED89
:10337000021B53EC112BFDF7BAF853EC182BFCF79A
:1033800062FF94ED001B53EC112BFDF7B0F8BDEC80
:10339000028B41EC100B70BD31B504462DED040BD2
:1033A0002DED0A8BB0EE41BAF0EE61BA0B989DEDAF
:1033B0000A0B20F00040B0F1795F0DDA51EC100BF0
:1033C000FFF75DFA042808BF00F09AF89DED0A0B9C
:1033D000BDEC0A8B05B030BD53EC102B51EC100B3B
:1033E000FCF731FF41EC180B9DED0A0B53EC182B49
:1033F00051EC100BFCF727FF41EC190B2C48B0EEF9
:10340000480AF0EE680A05217844FFF749FF9FED6E
:103410002ACBB0EE40AAF0EE60AA9CB353EC1C2B72
:1034200051EC190BFCF70FFF41EC1C0B53EC1A2B62
:1034300051EC190BFCF707FF9FED210B41EC190B29
:1034400053EC102B51EC1B0BFCF7FDFE53EC192B2E
:10345000FDF7EEF853EC182BFCF7F5FE53EC1B2BA5
:10346000FDF7E6F853EC1C2BFDF7E2F89DED0A1B87
:1034700053EC112BFDF7DFF8BDEC0A8B05B041ECE6
:10348000100B30BDFFE753EC1A2B51EC180BFCF777
:10349000DAFE53EC1C2BFDF72AF853EC192BFCF742
:1034A000D2FE9DED0A1B53EC112BFDF720F8E3E74C
:1034B0005404000000000000495555555555C5BF3E
:1034C000000000000000E03F10B553EC102B51EC61
:1034D000100BFDF70CF841EC100B10BD00000000C4
:1034E0009FED050B10B553EC102B51EC100BFDF7B5
:1034F000A5F841EC100B10BD00000000000000001A
:103500009FED050B10B553EC102B51EC100BFCF795
:103510009AFE41EC100B10BD0000000000000010EE
:1035200002E008C8121F08C1002AFAD1704770478C
:10353000002001E001C1121F002AFBD170470000EA
:103540000149086070470000800000201648B0F96B
:10355000001000EE101A1749F8EEC00A9FED130A8A
:1035600020EE801ADFED120A21EE201A81ED001AFA
:10357000B0F9021001EE101A0F49B8EEC11A21EE8F
:10358000001A21EE201A81ED001AB0F9040001EEB4
:10359000100A0A48B8EEC11A21EE000A20EE200AED
:1035A00080ED000A70470000540000200000003841
:1035B0000000344368000020640000206C000020FC
:1035C000154A10B513499378C8545B1CD8B2907053
:1035D0000C780023552C1AD10B2819D34878512880
:1035E00004D0522808D0532811D10BE051F8020F13
:1035F0005060486890600AE051F8020FD060486857
:10360000106104E051F8020F5061486890619370B6
:1036100010BD0000840000204000002082B0CDE9F1
:10362000000121F0004001909DED000B02B051EC33
:10363000100B7047FDF7C2FBFEF72EFEFEF760FB96
:10364000FEF70AFCFEF712FDFEF7C6FBFEF782FC52
:10365000FEF7E2FBFEF7D4FCFEF724FDFEF7BCFD0F
:10366000012207490748FEF701FB05490122491CD1
:103670000548FEF7FBFA0548FDF79EFFFEE7000050
:103680005C000020E802002028030020A80200209F
:1036900000B52DED048B83B041EC190BFDF762F8FA
:1036A00041EC180B18EE100A18EE901A8DED008BF5
:1036B000002818BF0120084320F00040C0F17F60BF
:1036C00000F1E040C00F14D019EE101A19EE900A64
:1036D0008DED009B002918BF0121084320F0004018
:1036E000C0F17F6000F1E040C00F04BF0120FFF790
:1036F00027FF51EC180B03B0BDEC048B00BD00009C
:103700000000000000000102030406070809000091
:103710000000010203040000555555555555C53F9D
:103720007D6FEB0312D6D4BF5544880E55C1C93FF7
:103730003B8F68B52882A4BF88B20175E0EF493F8E
:1037400009F7FD0DE13D023F4B2D8A1C273A03C0CE
:10375000C88A599CE52A004059018D1B6C06E6BFBA
:1037600082922EB1C5B8B33F4C5555555555A53F1E
:103770007751C1166CC156BF9015CB19A001FA3E06
:10378000AD529C804F7E92BEC4B1B4BD9EEE213E30
:10379000D43888BEE9FAA8BD00004054FB21F93FA7
:1037A0003163621A61B4D03D0000601A61B4D03D4B
:1037B0007370032E8A19A33B0000002E8A19A33BC5
:1037C000C14920259A837B390000000000000000D9
:1037D0006E83F9A22915444ED15727FCC0DD34F57C
:1037E000999562DB4190433CAB6351FE61C5BBDE02
:1037F0003A6E24B7E0D24D42EA2E49061C92D10916
:103800001CEB1DFE3EA729B1F53582E88444BB2E92
:1038100026709CE9417E5FB439D69139F4395383DF
:103820008B5F849C3B28F9BDFF97F81F0F9805DE3E
:103830008B112FEF1F6D0A5ACF7E366DB709CB273C
:10384000663F464F2DEA5F9EC7BA27757BF1E5EBD1
:10385000F739073DEA92528AB15FFB6B085D8D1F15
:10386000A6F810111111813FD561C119A0012ABF1D
:103870007DFEB157E31DC73EEB9C2B8AE6E55ABEA1
:103880007CD5CF5A3AD9E53DA83800080000002081
:1038900084000000203500082C3900088400002036
:1038A000E4220000303500080000000000000000A5
:1038B0000000003F00000000000000000000C0BF4A
:1038C000EC5138BE000000000000000000000000C5
:1038D00000000000000000000000000000000000E8
:1038E00000000000000000000000000000000000D8
:1038F00000000000000000000000000000000000C8
:1039000000000000000000000000000000000000B7
:103910000000000000000000010000001000000096
:0C392000000000000024F4000000000083
:040000050800018965
:00000001FF
